{
  "contractName": "dappToken",
  "abi": [
    {
      "inputs": [
        {
          "internalType": "contract Token",
          "name": "_tokenContract",
          "type": "address"
        },
        {
          "internalType": "uint256",
          "name": "_tokenPrice",
          "type": "uint256"
        }
      ],
      "payable": false,
      "stateMutability": "nonpayable",
      "type": "constructor"
    },
    {
      "anonymous": false,
      "inputs": [
        {
          "indexed": true,
          "internalType": "address",
          "name": "_buyer",
          "type": "address"
        },
        {
          "indexed": true,
          "internalType": "uint256",
          "name": "_amount",
          "type": "uint256"
        }
      ],
      "name": "Sell",
      "type": "event"
    },
    {
      "constant": true,
      "inputs": [],
      "name": "tokenContract",
      "outputs": [
        {
          "internalType": "contract Token",
          "name": "",
          "type": "address"
        }
      ],
      "payable": false,
      "stateMutability": "view",
      "type": "function"
    },
    {
      "constant": true,
      "inputs": [],
      "name": "tokenPrice",
      "outputs": [
        {
          "internalType": "uint256",
          "name": "",
          "type": "uint256"
        }
      ],
      "payable": false,
      "stateMutability": "view",
      "type": "function"
    },
    {
      "constant": true,
      "inputs": [],
      "name": "tokenSold",
      "outputs": [
        {
          "internalType": "uint256",
          "name": "",
          "type": "uint256"
        }
      ],
      "payable": false,
      "stateMutability": "view",
      "type": "function"
    },
    {
      "constant": false,
      "inputs": [
        {
          "internalType": "uint256",
          "name": "_numberOfTokens",
          "type": "uint256"
        }
      ],
      "name": "buyTokens",
      "outputs": [],
      "payable": true,
      "stateMutability": "payable",
      "type": "function"
    }
  ],
  "bytecode": "0x608060405234801561001057600080fd5b506040516103d93803806103d98339818101604052604081101561003357600080fd5b810190808051906020019092919080519060200190929190505050336000806101000a81548173ffffffffffffffffffffffffffffffffffffffff021916908373ffffffffffffffffffffffffffffffffffffffff16021790555081600360006101000a81548173ffffffffffffffffffffffffffffffffffffffff021916908373ffffffffffffffffffffffffffffffffffffffff1602179055508060018190555050506102f2806100e76000396000f3fe60806040526004361061003f5760003560e01c80633610724e14610044578063519ee19e1461007257806355a373d61461009d5780637ff9b596146100f4575b600080fd5b6100706004803603602081101561005a57600080fd5b810190808035906020019092919050505061011f565b005b34801561007e57600080fd5b506100876101f6565b6040518082815260200191505060405180910390f35b3480156100a957600080fd5b506100b26101fc565b604051808273ffffffffffffffffffffffffffffffffffffffff1673ffffffffffffffffffffffffffffffffffffffff16815260200191505060405180910390f35b34801561010057600080fd5b50610109610222565b6040518082815260200191505060405180910390f35b61012b81600154610228565b341461019f576040517f08c379a000000000000000000000000000000000000000000000000000000000815260040180806020018281038252600a8152602001807f436f6d666f726d6974790000000000000000000000000000000000000000000081525060200191505060405180910390fd5b80600260008282540192505081905550803373ffffffffffffffffffffffffffffffffffffffff167f5e5e995ce3133561afceaa51a9a154d5db228cd7525d34df5185582c18d3df0960405160405180910390a350565b60025481565b600360009054906101000a900473ffffffffffffffffffffffffffffffffffffffff1681565b60015481565b600080821480610245575082828385029250828161024257fe5b04145b6102b7576040517f08c379a00000000000000000000000000000000000000000000000000000000081526004018080602001828103825260148152602001807f64732d6d6174682d6d756c2d6f766572666c6f7700000000000000000000000081525060200191505060405180910390fd5b9291505056fea265627a7a723158207b813278ffcf5094f610ff83061eafbeb541f91b864f26b7326eb20aa4c967b364736f6c63430005100032",
  "source": "pragma solidity >=0.4.21 <0.7.0;\r\n\r\nimport \"./Token.sol\";\r\n\r\ncontract dappToken {\r\n    address admin; // admin assigned\r\n\r\n    uint256 public tokenPrice;\r\n\r\n    uint256 public tokenSold;\r\n\r\n    event Sell(address indexed _buyer, uint256 indexed _amount);\r\n\r\n    Token public tokenContract; // instane of tokenContract for getting address and getting functions\r\n\r\n    constructor(Token _tokenContract, uint256 _tokenPrice) public {\r\n        // assign an admin.\r\n        // Token contract\r\n        // Token Price\r\n        admin = msg.sender;\r\n        tokenContract = _tokenContract;\r\n        tokenPrice = _tokenPrice;\r\n    }\r\n\r\n    function mul(uint256 x, uint256 y) internal pure returns (uint256 z) {\r\n        require(y == 0 || (z = x * y) / y == x, \"ds-math-mul-overflow\");\r\n    }\r\n\r\n    function buyTokens(uint256 _numberOfTokens) public payable {\r\n        require(msg.value == mul(_numberOfTokens, tokenPrice), \"Comformity\"); // check if value paid is enough!\r\n\r\n        // require(\r\n        //     tokenContract.balanceof(address(this)) >= _numberOfTokens,\r\n        //     \"not enough Tokens\"\r\n        // ); // check if number of tokens are enough\r\n\r\n        // require(\r\n        //     tokenContract.transfer(msg.sender, _numberOfTokens),\r\n        //     \"check if transfer is succesful\"\r\n        // );\r\n\r\n        tokenSold += _numberOfTokens;\r\n        emit Sell(msg.sender, _numberOfTokens);\r\n    }\r\n}\r\n",
  "sourcePath": "C:\\Users\\chaha\\Downloads\\GIT\\Nevermind_token\\contracts\\dappToken.sol",
  "compiler": {
    "name": "solc",
    "version": "0.5.16+commit.9c3226ce.Emscripten.clang"
  },
  "schemaVersion": "3.0.23",
  "updatedAt": "2020-06-27T19:42:34.107Z",
  "devdoc": {
    "methods": {}
  },
  "userdoc": {
    "methods": {}
  }
}